:1000000000FCFF1FE1040000D14A0000E3040000EF
:10001000E3040000E3040000E3040000E304000044
:10002000E3040000E3040000E3040000E304000034
:10003000E3040000E3040000E30400008D55000029
:10004000E3040000E3040000E3040000E304000014
:10005000E3040000E3040000E3040000E304000004
:10006000E3040000E3040000E3040000E3040000F4
:10007000E3040000E3040000E3040000E3040000E4
:10008000E3040000E3040000E3040000E3040000D4
:10009000E3040000E3040000E3040000E3040000C4
:1000A0000D5B0000E3040000E3040000E304000033
:1000B000E3040000E3040000E3040000E3040000A4
:10040000FFFFFFFFFFFFFFFFFFFFFFFF7EFFFFFF7D
:1004100072B6244880F30888234880F309880220B4
:1004200080F31488BFF36F8F03F063FF03F07CFE4B
:100430001E481F491B4A914202DA08600431FAE75C
:100440001C49194A914202DA08600431FAE71A4954
:100450001A4A1B4B9A4204DA0868106004310432CD
:10046000F8E700201749184A914202DA086004317F
:10047000FAE703F041FF03F03DFF144C144DAC428A
:1004800003DA216888470434F9E702F007FC114CCD
:10049000114DAC4203DA216888470434F9E70F496B
:1004A0000847000000FCFF1F00040020555555556B
:1004B00000F8FF1F00FCFF1F086900000004002077
:1004C000900400200006002090120020100400007C
:1004D000100400001004000010040000F7420000A7
:1004E00096E700F000F8FEE7F0B544464D46564664
:1004F0005F46F0B46B46CB60C3689D46F0BCA04637
:10050000A946B246BB46F0BD03F076FF62B6281C92
:10051000A047002004F098FAFEE703F05DFF04F026
:1005200085F903F069FF024A024B1360FEE7C046FB
:1005300004ED00E00000008002B471464908490063
:10054000095649008E4402BC7047C04602B4714649
:1005500049084900095C49008E4402BC7047C04606
:1005600003B47146490840004900095E49008E44C1
:1005700003BC704703B47146490840004900095A5A
:1005800049008E4403BC7047002243088B4274D359
:1005900003098B425FD3030A8B4244D3030B8B4284
:1005A00028D3030C8B420DD3FF22090212BA030C8D
:1005B0008B4202D31212090265D0030B8B4219D36E
:1005C00000E0090AC30B8B4201D3CB03C01A52418E
:1005D000830B8B4201D38B03C01A5241430B8B42D6
:1005E00001D34B03C01A5241030B8B4201D30B03BF
:1005F000C01A5241C30A8B4201D3CB02C01A5241E6
:10060000830A8B4201D38B02C01A5241430A8B42A8
:1006100001D34B02C01A5241030A8B4201D30B0291
:10062000C01A5241CDD2C3098B4201D3CB01C01AAB
:10063000524183098B4201D38B01C01A52414309B5
:100640008B4201D34B01C01A524103098B4201D3A3
:100650000B01C01A5241C3088B4201D3CB00C01A10
:10066000524183088B4201D38B00C01A5241430888
:100670008B4201D34B00C01A5241411A00D20146AD
:10068000524110467047FFE701B5002000F0F0F836
:1006900002BDC0460029F7D076E7704703460B43FA
:1006A0007FD4002243088B4274D303098B425FD36B
:1006B000030A8B4244D3030B8B4228D3030C8B4297
:1006C0000DD3FF22090212BA030C8B4202D312127D
:1006D000090265D0030B8B4219D300E0090AC30B52
:1006E0008B4201D3CB03C01A5241830B8B4201D3FF
:1006F0008B03C01A5241430B8B4201D34B03C01AE8
:100700005241030B8B4201D30B03C01A5241C30A5F
:100710008B4201D3CB02C01A5241830A8B4201D3D0
:100720008B02C01A5241430A8B4201D34B02C01ABA
:100730005241030A8B4201D30B02C01A5241CDD25F
:10074000C3098B4201D3CB01C01A524183098B42AA
:1007500001D38B01C01A524143098B4201D34B0193
:10076000C01A524103098B4201D30B01C01A5241F6
:10077000C3088B4201D3CB00C01A524183088B427D
:1007800001D38B00C01A524143088B4201D34B0066
:10079000C01A5241411A00D20146524110467047D8
:1007A0005DE0CA0F00D04942031000D340425340DD
:1007B00000229C4603098B422DD3030A8B4212D39D
:1007C000FC22890112BA030A8B420CD389019211CF
:1007D0008B4208D3890192118B4204D389013AD00C
:1007E000921100E08909C3098B4201D3CB01C01AE1
:1007F000524183098B4201D38B01C01A52414309F4
:100800008B4201D34B01C01A524103098B4201D3E1
:100810000B01C01A5241C3088B4201D3CB00C01A4E
:10082000524183088B4201D38B00C01A5241D9D266
:1008300043088B4201D34B00C01A5241411A00D2E7
:100840000146634652415B10104601D34042002BE3
:1008500000D54942704763465B1000D3404201B562
:10086000002000F005F802BD0029F8D016E7704717
:100870007047C046002B11D1002A0FD1002900D1AA
:10088000002802D00021C943081C07B4024802A175
:100890004018029003BDC046D9FFFFFF03B468466D
:1008A00001B5029800F030F8019B9E4602B00CBCE6
:1008B0007047C046F0B5CE46474615042D0C2E00B5
:1008C00080B50704140C3F0C9946030C7E435D432E
:1008D000674363437F19340CE4199C46A54203D94E
:1008E00080235B029846C4444B4643435143250C46
:1008F00036046544360C2404A4195B1959182000E9
:100900000CBC90469946F0BDF0B557464E4645465C
:10091000DE46E0B5040083B00D00924699468B4256
:1009200030D82DD04946504600F0DEF829000600A8
:10093000200000F0D9F8331A9846203B9B4633D468
:100940005A465346934042461F00534693401E006A
:10095000AF423AD8AF4200D17BE05B46A41BBD4119
:10096000002B00DA78E0002200230092019301239B
:100970005A4693400193012342469340009328E056
:100980008242CFD900220023009201930C9B002BBE
:1009900001D01C605D600098019903B03CBC90469A
:1009A0009946A246AB46F0BD424620239B1A5246CA
:1009B000DA40414613004A468A40170042461F4328
:1009C000534693401E00AF42C4D900220023009238
:1009D00001934346002BD9D0FB079C466146720821
:1009E0000A437B0846460EE0AB4201D1A2420CD836
:1009F000A41A9D41012024196D410021013E2418B3
:100A00004D41002E06D0AB42EED9013E24196D4176
:100A1000002EF8D1009801995B4600196941002B1E
:100A200025DB2B005A464446D3402A00E2401C00F6
:100A30005B461500002B2BDB26005F46BE403300D3
:100A400026004746BE403200801A9941009001912D
:100A50009CE7A342B9D880E74246202300219B1A95
:100A60000022009101920122DA40019283E742467E
:100A700020239B1A2A0046469A402300F34044460E
:100A800013432A00E2401C005B461500002BD3DA1A
:100A90002023424626009B1ADE402F00B4464646DD
:100AA000B74066463B003343CAE7C0461C210123DA
:100AB0001B04984201D3000C10391B0A984201D341
:100AC000000A08391B09984201D30009043902A21F
:100AD000105C40187047C046040302020101010186
:100AE000000000000000000010B5002903D1FFF74E
:100AF000DDFF203002E0081CFFF7D8FF10BDC04624
:100B000010B5034B0100186800F034F910BDC04661
:100B10000004002010B5034B0100186800F0D4F861
:100B200010BDC0460004002030B5032A0CD90300D4
:100B30000B439B071CD103680C68A34218D1043AED
:100B400004300431032AF6D8551E002A0ED002784C
:100B50000C7894420ED101350123013904E0C25CC6
:100B60000133CC5CA24205D1AB42F8D1002030BDAC
:100B7000551EECE7101BFAE7F0B5C64600B50F2A84
:100B800043D90B00032603431E400C000300002E34
:100B900040D11500103D2D09AC462D01A8468044DA
:100BA00000E03B00676825685F60E7681D60DF6004
:100BB0001F00A56810379D6010344345F1D165468C
:100BC0000F230C2401352D014919134045191442F6
:100BD00023D08C59AC5104369C1B032CF9D8032428
:100BE000043B9B0801339B002240ED18C918561E98
:100BF000002A07D0002300E02300CA5C5C1CEA54F2
:100C00009E42F9D104BC9046F0BD0500561E002A54
:100C1000F0D1F7E7561E0500ECE71A00F6E7C046EC
:100C2000F0B5050083074AD0541E002A44D0CEB246
:100C30000300032202E00135013C3DD301332E7055
:100C40001342F8D1032C2FD9FF220A401502154375
:100C50002A0415430F2C35D92700103F3F093E01C8
:100C6000B4461E001A001036664415605560956043
:100C7000D5601032B242F8D10F260C2201373F0165
:100C80002640DB193700224217D03E1FB608B400B9
:100C9000A4461A001C1D644420C2A242FCD10324B5
:100CA0000136B6009B193C40002C05D0C9B21C1976
:100CB000197001339C42FBD1F0BD3400F4E71400FD
:100CC0000300BFE72700E0E770B50500002915D055
:100CD0000C1F2368002B27DB280000F0B1F8244B01
:100CE0001A68002A05D0A2420CD9216860188242F5
:100CF00024D0626028001C6000F0A4F870BDA342FC
:100D000003D81A005368002BF9D111685018A0427B
:100D10001BD027D821686018834207D063605460D5
:100D2000280000F08FF8E9E7E418D5E718685B6859
:100D300084466144216063605460F1E71068526842
:100D40008446614421606260D4E720680918501825
:100D500011608342E4D118685B6884466144116085
:100D60005360DDE70C2328002B6000F06BF8C5E72B
:100D700000060020F8B50323CD1C9D43083506006E
:100D80000C2D2AD20C25A94229D8300000F058F8A1
:100D90002A4F3A68002A0AD013685B1B04D441E04A
:100DA00023685B1B1FD522005468002CF8D17B6898
:100DB000002B3DD02900300004F0EAFA431C2AD071
:100DC0000323C41C9C43A04205D0211A300004F028
:100DD000DFFA431C1FD0256010E0002DD3DA0C236E
:100DE00000203360F8BD0B2B05D86368A2421DD0EC
:100DF000536003E014002360E4182560300000F025
:100E000021F8200007220B30231D9043C21AE9D09D
:100E10001B1AA350E6E70C233000336000F012F8F1
:100E20000020DFE70B2BE5D8140053683B60E5E7B3
:100E30000021300004F0ACFA7860BBE70006002027
:100E40007047C0467047C04610B5054C01F06AFDBA
:100E500006220521200004F0BDFB2023636010BDA5
:100E600080F00F40012070470120704710B5FFF758
:100E7000FBFF10BD704710B5FFF7FCFF10BD000071
:100E800013B5104B00901B78002B16D16B469B7846
:100E9000002B0DD0002A0BD000F0AAFD04000100A9
:100EA000009800F07DFD2000009901F0FBFB16BDCD
:100EB000009800F089FD0400F5E7009800F098FD27
:100EC0000099F2E70D06002010B504006388008841
:100ED0001B040A001843A188FFF7D2FF10BD0120B0
:100EE000704710B504000021FFF7EEFF2100FFF767
:100EF000C2FF10BD10B5FFF7A7FF10BD10B501F080
:100F000013FD10BD704710B500F042FCFFF7FAFF6B
:100F1000FA2003F0A1FD10BD10B5FFF7F4FF02F0B9
:100F20001FFE10BD10B5FFF7EEFF02F01FFE10BD53
:100F300070B501210500FFF7C7FF29000400FFF786
:100F400095FF002801D1002070BD2900200002F08B
:100F50002BFC0028F7D02900200002F031FA0028ED
:100F6000F1D02900200002F09BFB0028EBD0AB78E9
:100F7000002B0AD0134B9C421ED00AD85C3BFF3B8F
:100F80009C4210D0104B9C4210D02800FFF76AFF03
:100F9000DAE70E4B9C420CD011D30D4B9C42F4D19E
:100FA000FFF7C0FFCFE7FFF7B7FFCCE701F0E8F9A5
:100FB000F6E701F039F9E8E701F042F9E5E701F079
:100FC00044F9E2E75B5D0000DF5C00005D5D00006E
:100FD000A85D000010B502F010FD00F05BF810BD38
:100FE00010B500F05CF802F00DFD10BD704710B5B3
:100FF000FFF7FCFF10BD01207047000010B5C4B220
:10100000FFF7F9FF002811D0E343DBB20B4A802140
:101010009C070CD551608021094A89035C0708D5DB
:101020005160802149031B0705D5516010BD9160B7
:10103000F1E79160F5E79160F8E7C04680F00F4076
:1010400000F10F4010B50D4C06222000072104F0DE
:10105000C1FA802363600A4C06222000152104F0A7
:10106000B9FA80239B03636006221421200004F058
:10107000B1FA80235B03636010BDC04680F00F406F
:1010800000F10F4010B50400FFF7B1FF201CFFF77F
:10109000B5FF10BD10B50020FFF7F4FF10BD10B56F
:1010A00002F0E0FBFFF7EEFF10BD000010B502F00C
:1010B000D9FB074B04001A78824207D0187002F05F
:1010C0000BFD044B18602000FFF7DCFF10BDC0468D
:1010D0000C0600200806002010B5030C86B0DBB219
:1010E00000900191002B01D000F0DEFF16230022BA
:1010F0006B441A806B46009904AC04919A8803AB48
:10110000A2801980002A05D10498616800F0FAFED7
:1011100006B010BD1A88044B9A42F5D02000FFF7A4
:10112000DEFE0028F0D1F3E7FFFF000010B50088D5
:1011300000F080FC10BD000010B5041E12D0822803
:1011400011D102F08FFB83070CD4392000F04AFF45
:1011500000F0DAFF502003F07FFC392000F04CFF54
:1011600000F0D2FF10BD83280DD102F07BFBC30736
:10117000F8D4532000F036FF00F0C6FF642003F0DF
:101180006BFC5320EAE784280DD102F06BFB430788
:10119000E8D4472000F026FF00F0B6FF642003F0FB
:1011A0005BFC4720DAE7031FDBB2A02B0FD81C4BF8
:1011B0000100186802F0A8FB002804D0200000F00D
:1011C0001BFF00F0A1FF200000F00CFFC8E70300A8
:1011D0002033DBB2072B07D8072301201C40A04097
:1011E000C0B200F03BFFBBE703005B33DBB2022B76
:1011F00004D80C4AD05C02F055FBB3E70300583327
:10120000DBB2162B05D8084A5B00985A02F05CFB4B
:10121000A8E7EC28A6D901F0B9FD01F089FEA1E705
:1012200064040020126100001661000010B500285F
:101230000FD082280ED102F015FB830709D5392083
:1012400000F0D0FE00F060FF392000F0D5FE00F085
:101250005BFF10BD83280AD102F004FBC307F8D559
:10126000532000F0BFFE00F04FFF5320EDE784282D
:101270000AD102F0F7FA4307EBD5472000F0B2FE9F
:1012800000F042FF4720E0E7031FDBB2A02BDCD9D0
:1012900003002033DBB2072B07D8072303400120CC
:1012A0009840C0B200F0E2FED1E703005B33DBB24E
:1012B000022B03D8002002F0F5FACAE703005833E6
:1012C000DBB2162B03D8002002F0FEFAC1E7EC28AF
:1012D000BFD901F0B5FD01F02BFEBAE770B50500EE
:1012E0000C00FFF729FF002C03D12800FFF79EFF19
:1012F00070BD0120013C03F0AFFBA4B2F3E710B5D1
:101300005021392800D00021FFF7E8FF10BD10B5AB
:10131000002803D000F0A2FE00F0F6FE10BD10B5CC
:10132000002803D000F0A2FE00F0EEFE10BD000089
:10133000F0B585B00C1C87790290857800F07EFEB0
:1013400023043F090190039300281ED00195002D2E
:101350001BD00F2223041B0E9343402B06D02300E7
:1013600000222033DBB20192072B0ED90022A94BB9
:1013700001925B785B0708D5022000F021FF00F0A6
:101380005DFE01234340DBB201932304180F0B28B9
:101390003FD8FFF7EFF80C000C005E005E00BF00C6
:1013A000D3003E003E00DE003501480148010F2217
:1013B000230426051B0E360F934300D03601E4B2FA
:1013C000002D12D0002E0BD023002033DBB23000D2
:1013D000072B01D9002C05D100F040FE00F094FE4F
:1013E000200057E000F050FEF8E72000FFF71EFF56
:1013F000002E0ED023002033DBB23000072B01D9A2
:10140000002C02D100F032FE01E000F045FE00F0B9
:101410007BFE039B1B0F083B032B03D802F022FA31
:10142000FFF730FE019B002B11D000F0FFFD0123E0
:1014300018400CD1029B987000F0F0FD00F042FAC9
:10144000029800F061F900F0E9FD00F047FA05B0FC
:10145000F0BD0F22230426051B0E360F9343202BCD
:1014600000D03601E4B2002C06D0012C3BD0002D78
:1014700044D0002F3CD0B3E7664B5B785B0713D4B6
:10148000002D0AD0002E04D0300000F0E7FD00F05F
:101490003BFE0020FFF750FEBBE72800FFF7C6FE2B
:1014A000002EB6D03000ADE7002D11D0002F06D1B0
:1014B00000F000FE3043C0B2FFF729FFA9E7012F7B
:1014C000F6D100F0F7FD3043C0B200F0FFFDA0E719
:1014D000002F05D100F00CFE3000FFF720FF98E749
:1014E000012F96D0F6E7002D04D0052F00D990E704
:1014F0003000E1E7042F00D98BE7EDE7002FEBD0B8
:101500005020392C00D0012003F0A6FA2000FFF76C
:101510008DFE7EE723059B0F09D0012B00D078E7D5
:10152000281E01D0A005800D02F0CEF971E7281E1B
:1015300001D0A005800D02F0B5F96AE7E0B2002DF8
:1015400004D001F023FC01F0F3FC62E701F078FC29
:10155000F9E723049B019B0F23D1002D00D058E70E
:1015600023065B0F20079B00000F984080B2E20625
:1015700003D50F359D40ED43ADB22405A40F28439C
:10158000022C08D00AD8012C02D000F06BF940E7F9
:1015900000F05EF93DE700F06FF93AE700F053F92B
:1015A00037E7A205920FD1B20123002D1CD01340C2
:1015B000002B00D12DE72206520F20079200000FCA
:1015C0009040002380B2E10603D50F339340DB4304
:1015D0009BB22405A40F1843022C0BD00DD8012C6C
:1015E00005D000F09DF914E749080B40E0E700F052
:1015F0008DF90EE700F09EF90BE700F04DF908E7D2
:10160000E6B22405240F002D06D0200000F05AF980
:101610006EE7C046CA1000203000FFF780FE2000B1
:1016200000F05CF9F5E6E6B23000F038042842D864
:10163000FEF78CFF032611182200002D07D0042F7F
:1016400000D9E6E6E004C00E00F054F9E1E6052F0B
:1016500000D9DEE6F6E7E004C00E002DE0D100F090
:1016600031F9D6E6002D04D0E004C00E00F023F9D5
:10167000CFE600F01BF9CCE61A4B5B785B0704D48D
:10168000E004C00E002DCBD0E9E7002D09D0E40422
:10169000E40E200000F016F90321200000F06CFD9C
:1016A000B7E6012000F08CFD012F00D8B1E6022042
:1016B00000F086FDADE6002D06D0002F01D03000F1
:1016C000E8E6E004C00ECAE7002F07D05020392E0C
:1016D00000D0012003F0C0F9300018E7E004C00E8C
:1016E0009EE7C046CA10002070B5040080782188AB
:1016F00000F0AAF9051C00F027F900F0A3F8291C56
:101700002000FFF715FE70BD73B5868801AD04009B
:10171000010002222800FFF72FFA002E16D02A8897
:101720000E4B9A4212D02000FFF702FC00280ED187
:1017300000F084FC002809D0A378002B06D0084BC9
:101740005B785B0702D5022000F03AFD73BD2000F4
:10175000FFF7CAFF2000FFF7C4FBF7E7FFFF000019
:10176000CA10002010B5002002F09CF8002002F002
:10177000ABF800F099FC00F0C7FC01F0F3FB01F0BE
:10178000D7FB10BD10B500F041FCFFF7EBFF10BD1B
:1017900010B500F073FCFFF7F5FF10BDC3B20004F5
:1017A000020F10B500200B2A08D801210C0094402C
:1017B00022000C4C224202D152060BD410BDF02B59
:1017C0000DD003D8E7229A424041F7E7F43B584254
:1017D0005841F3E70800E72BF0D9F13BF7E70800A1
:1017E000ECE7C0460C0C000073B501AD8688010023
:1017F000040002222800FFF7BFF90020864208D02B
:101800002A88044B9A4204D0208800F013F9FFF78D
:10181000C5FF76BDFFFF000082B002B0704782B006
:1018200002B07047704710B5FFF7FCFF10BD000015
:1018300010B5FFF7F8FF024B1880FFF793FF10BDBC
:101840000E060020704710B5FFF7F2FF10BD000034
:1018500010B5034B1B881843FFF7EAFF10BDC046C5
:101860000E06002010B5034B1B881840FFF7E0FF61
:1018700010BDC0460E06002010B5034B1B88584013
:10188000FFF7D6FF10BDC0460E060020704710B50A
:10189000FFF7FCFF10BD000010B5FFF7F8FF024B8B
:1018A0001880FFF75FFF10BD1006002010B5002064
:1018B000FFF7F2FF10BD0123834010B598B2FFF788
:1018C000EBFF10BD01238340034A10B51088184375
:1018D00080B2FFF7E1FF10BD100600200123834016
:1018E00010B5034A10889843FFF7D6FF10BDC046D5
:1018F0001006002001238340034A10B51088584089
:1019000080B2FFF7C9FF10BD1006002010B5034BD1
:101910001B881843FFF7C0FF10BDC046100600200B
:1019200010B5034B1B881840FFF7B6FF10BDC0462B
:101930001006002010B5034B1B885840FFF7ACFF82
:1019400010BDC04610060020704770B50125CB08B9
:101950009B00D21807232E0019408E400021F6B2BA
:101960000300CB40545C2B405B42634033406340F8
:10197000535401310429F3D170BD30B5072400223E
:101980000440C00880000918012510008B5CE3406A
:101990002B40934001321843C0B2042AF6D130BD27
:1019A00007B5030401AA10801B0E08000E2B08D8EF
:1019B0001278062A05D8072159438918014AFFF7EA
:1019C000C4FF07BD1206002007B5030401AA10805A
:1019D0001B0E00200E2B08D81278062A05D80730D7
:1019E000584302498018FFF7C8FF0EBD12060020B9
:1019F000F7B50F2401270D4B01AE1A880C4B308030
:101A00001B881A430092009BE5B223413B4204D15C
:101A1000013CF8D200252800FEBD3168280000F006
:101A200059FE80B20128F3D0F5E7C0461006002029
:101A30000E06002007B501AB18800198FFF7D8FF0C
:101A4000019900F047FE0EBD37B50F4B01AC1B7876
:101A50002180002B03D00198FFF7ECFF3EBD00284A
:101A60000CD02068FFF7C4FF050001002068FFF7D5
:101A700097FF0199280000F02DFEEFE72068FFF79F
:101A8000A3FF0500F5E7C0460D06002070B5072549
:101A90000B4B1C780B4B1B78A34200D170BD0A4B3B
:101AA000E200D15A9B1858889A8800040843D988C4
:101AB000013409041143FFF7B2FE2C40EAE7C046A7
:101AC000930600209206002052060020064B10B517
:101AD00058881A88D988000410439A880904114349
:101AE000FFF79DFE10BDC0464A060020F7B50F2245
:101AF0001F488379934336D18378002B33D01D4B15
:101B000001A91B781C4A12789A422CD082889446EC
:101B1000002A29D0047847780C704F700A88174D36
:101B2000AA4221D0164ADE0092195578BD421BD137
:101B3000134D755DA54217D19478002C14D16546DC
:101B40009488641BA4B2C72C0ED80F24102183796B
:101B500023400B4383719379234019439171FFF71D
:101B6000D3FDFFF793FFF7BD072201331340C9E709
:101B70004A0600209306002092060020FFFF000086
:101B800052060020F0B5040097B010AE0100062206
:101B90003000FEF7F1FF2378B04F03936378398864
:101BA0009C46A37809AA0193A38807910293118008
:101BB000BB883978059304917878002B00D1E8E050
:101BC0001188A74A914200D1E3E0BD78002D00D1F1
:101BD000DFE0B9790F230A009A430692029B059A27
:101BE0009B1A9BB2C72B00D993E0069B002B50D1C8
:101BF000049A0AAB1A7058701B88994A019E934246
:101C000014D02388079A9A4210D1331E00D03EE1A7
:101C100010200F3319400143B971FFF757FF380007
:101C2000FFF772FDBB79A37100252FE0029B002B0B
:101C300000D030E1019B002BF6D00123874A917937
:101C40000B439371F0E7D80011184F78674506D120
:101C5000805C039FB84202D189780029E4D1072132
:101C600001330B402BE1114201D0002B0DD020336A
:101C7000DBB2072B09D92000FFF746FD2E0004E058
:101C80001142F4D0A2798A43F1D13500280017B06F
:101C9000F0BD049A0BAB1A7058701B88704A9342BF
:101CA00012D02388079A9A420ED1019B002B0BD1A8
:101CB000A1712000FFF728FD082221003800FEF75F
:101CC0005BFFFFF703FFE1E72000FFF78DFD002832
:101CD0001BD0019B002B18D0604A93791F2B09D988
:101CE00012A81288028000228270029A8371828078
:101CF000FFF70AFD082221005848FEF73DFFFFF7D5
:101D0000F5FEFFF7E3FE0125C0E72000FFF7FCFC2E
:101D1000F9E7069B002B15D1019BB370029BB380A2
:101D2000039B33706346737003CEFFF775FD380075
:101D3000FFF7EAFC082206993800FEF771FFFFF76B
:101D4000C5FE71E7049A0CAB1A7058701B88444AA0
:101D5000934210D02388079A9A420CD1019B002B02
:101D600009D1A1712000FFF7CFFC082201993800AA
:101D7000FEF756FF8AE72000FFF736FD0028C4D0A3
:101D8000019B002BC1D0354A14A893791F2BB1D9E0
:101D9000A7E7324E059B0DAA3188002B62D0049B29
:101DA0005070137015882E4A95425BD0B578002D7F
:101DB00058D1029B059FDB1B9BB2C72B3AD8019DD4
:101DC000002DA2D0049F0EAB1F7058701B88934249
:101DD00022D0238899421FD1B379DA0716D40F2273
:101DE0001900914312D01900A3719143F02906D034
:101DF0000F211A09013212010B401343A371200075
:101E0000FFF782FC08222100300058E70822210059
:101E10003000FEF7B1FE39E72000FFF7E5FC0028AF
:101E200000D067E70123B27920001343B371FFF7B5
:101E30006BFC2BE7019A10AB9A70029A9A80039A76
:101E40001A7062465A7010981199FFF7E5FC082243
:101E500029003000FEF7E4FE33E7C0464A060020C2
:101E6000FFFF0000019B002B00D14EE72000FFF791
:101E7000BBFC051E00D148E7082221003800FEF710
:101E80007BFE3800FFF752F9FFF730FE19E7029B9F
:101E9000002B00D1D1E6039A0FAB1A7062465A703C
:101EA0001B88144A934200D1C4E6019B002B00D04A
:101EB000C3E6114A114B12781B780192104A01991E
:101EC0008B4200D0BFE6039A10AB1A7062465A707C
:101ED0001098FFF7AFFD0204C3B2100F032800D91A
:101EE000C9E60F21120EFEF73BFBBEFEBEFECBFE87
:101EF000CBFEC046FFFF00009206002093060020A4
:101F000052060020F0B587B06C460090200061605A
:101F1000FFF738FE04A9071E2D4D0DD02288A38897
:101F20000A80002B06D02B4B92B29A4202D003CCEF
:101F3000FFF775FC072743E00B00220041CA41C3AD
:101F40000888A28803AB1880002AF3D0214B82B204
:101F50009A42EFD0204B18780723441C1C402B7862
:101F60009C420AD01D4BC00018180822FEF704FE40
:101F7000194B1C70FFF78AFDDCE7FFF709FC164BD5
:101F80000822390016481F702F70FEF749FED1E76E
:101F9000124CC0002018FFF7F5FD002815D02B7853
:101FA000DB001A5BE4186088E188A3880004090458
:101FB00019431043FFF733FC2B7801333B402B7060
:101FC000054B28781B788342E2D107B0F0BDC046AC
:101FD00093060020FFFF000092060020520600201A
:101FE0004A06002010B5034B0100186801F0BDFC43
:101FF00010BDC0466404002010B5034B01001868F2
:1020000001F0B7FC10BDC0466404002010B5024BBF
:10201000186801F0B2FC10BD640400200020024BDF
:102020001856C010C0B27047A4060020024B1878A2
:10203000072318407047C046A4060020034B1878B9
:1020400007231840431E9841C0B27047A4060020E1
:10205000014B18787047C046A6060020024B1A783C
:10206000104318707047C046A6060020024A137835
:10207000834313707047C046A60600200022014B20
:102080001A707047A6060020024B1A781043187089
:102090007047C046A7060020024A13788343137096
:1020A0007047C046A70600200022014B1A707047F7
:1020B000A7060020014B18787047C046A5060020EF
:1020C000704710B5FFF7FCFF10BD0000064B10B5C0
:1020D0005B785B0706D5054B1A78824202D01870F0
:1020E000FFF7EFFF10BDC046CA100020A506002074
:1020F00010B5044B1A78002A03D000201870FFF79F
:10210000E0FF10BDA506002070B5134B134A1B78E5
:102110001278134C1343134A206812780370002A74
:1021200007D01343037001F0E1FB002801D0FFF753
:10213000DFFF24680C4D082229002000FEF7F4FC84
:10214000002807D0082221002800FEF715FD2000F6
:1021500001F092FB70BDC046A6060020A706002035
:1021600064040020A50600209C060020704710B5DE
:10217000FFF7FCFF10BD00000A4B10B55B785B0752
:102180000CD5094CC3000B432370FFF79BFB0020C9
:102190002056C010C0B2FFF7EAFF10BDFFF792FB58
:1021A000FBE7C046CA100020A4060020002010B59E
:1021B000024B1870FFF7DBFF10BDC046A4060020DD
:1021C000002310B50A4AD3561900814348B2107053
:1021D00042070CD1DBB2834209D0064B5B785B0728
:1021E00005D5C010C0B2FFF779FBFFF7DFFF10BDC8
:1021F000A4060020CA1000200A4A10B553785907D7
:10220000C90F81420CD001210840033180008B436B
:1022100003435370108800F047F80220FFF7D0FF07
:1022200010BDC046CA100020044B10B558780123D9
:102230004007C00F5840FFF7DFFF10BDCA10002055
:1022400010B50120FFF7D8FF10BD10B50020FFF733
:10225000D3FF10BD10B50249002001F0A9F810BD50
:10226000FFFF000010B5002001F072F8024BC0180B
:1022700043425841C0B210BD1801FFFF10B5022003
:1022800000F0AAFF10BD10B5032000F0A5FF10BD9F
:1022900010B5042000F0A0FF0400222000F09CFFF5
:1022A0000002204380B210BD10B50400C1B204206A
:1022B00001F07AF8210A222001F076F810BD10B55D
:1022C00001000F2001F078F810BD10B501001320B7
:1022D00001F072F810BD10B50020FFF7F6FF10BD39
:1022E00010B50020FFF7EBFFFFF7F5FF10BD000072
:1022F00010B500242049002001F05AF800210220E6
:1023000001F052F80021032001F04EF81B4B210090
:1023100004201C8001F048F80421222001F044F838
:102320002100052001F040F82100062001F03CF8D2
:10233000FF21072001F038F82100082001F03CF8C7
:1023400021000D2001F030F82100182001F034F8B0
:102350002100172001F028F821001C2001F02CF8A2
:102360002100202001F024F82100182001F024F899
:10237000FFF7B6FF10BDC046E8FE00000E060020C5
:1023800010B5FFF7B5FF10BD10B501000E2001F02C
:102390000BF810BD10B501F09FFB024B1860024B0B
:1023A000186010BDA8060020AC06002070477047DA
:1023B00010B5FFF7FCFF10BD704710B5FFF7FCFF2D
:1023C00010BD000010B5044800F06AFAFFF7EEFFF8
:1023D000FFF7EEFF10BDC0469928000001207047AE
:1023E00010B5FFF7FBFF10BD7047704710B5FFF742
:1023F000FBFFFFF7FAFF10BD10B500F071FAFEF712
:1024000021FE10BD10B501F063FB00F039FBFFF7B2
:10241000F3FFFFF7D2FF10BDF0B589B000F048FB25
:102420000024354DE0B2665D00F082FA0E2C44D0F7
:1024300001348642F5D0314B1B789B0701D500F063
:102440007DFAFFF7CDFF002403900195200000F0F6
:102450006FFA019B07001B780293984223D0002556
:102460000126029B7B40334215D0039B002B12D0E8
:1024700004AB1D705C7033003B405A1E934104AAAC
:10248000937001F061FB0123184304AB9880059918
:102490000498FEF721FE01357600EDB2F6B2072D65
:1024A000DFD1019B1F70019B01340133E4B2019322
:1024B0000F2CCBD1FFF76EFF18E08642BBD101F0A5
:1024C00043FB0F4D06002B8883420FD0012306AC3F
:1024D0005B4223800023A37001F036FB01230343FA
:1024E000A38006986168FEF7F7FD2E8000F064FD7A
:1024F000FEF7DCFD09B0F0BDB2060020C1060020E9
:10250000B006002070B500F0EFF8544B040098427C
:1025100031D8A020C001844200D379E0E72C17D83D
:10252000E02C6ED2A72C0AD8A52C63D2012C68D03F
:1025300023B2002B01D0042C63D2002461E0BE2C16
:10254000FBD85834E4B2464B6400E05A882456E085
:10255000444B9C4206D8FF2C55D8ED2CEDD30443B8
:10256000A4B24EE08023DB019C42E6D33E48044007
:10257000A020000244E03D4B984212D8FF3BC0B27D
:102580009C425BD23A4B9C424FD8FF3B9C4249D382
:102590000324830804400120A0405B011843354C0C
:1025A000DDE7354B98420FD8FF3B984249D2334B79
:1025B0009842C2D8C0B200F01BF9F82400026401AE
:1025C00020400134FF341BE02D4B98423CD92D4B69
:1025D000244AC3189BB29342AFD8C004C00E00F087
:1025E00007F9F82300025B011840E4B2044380209D
:1025F000800105E05B34244BE4B2185D8024E401E3
:102600000443201C70BD200A80B20002E4B2A6E799
:102610000323E4B2A0081C40023BA340400118433E
:102620001A4C9CE700021A4CEAE703248308044092
:102630000120A0405B011843164C90E70002164CA5
:10264000DEE70002154C8AE70F25284000F0D0F89D
:1026500024092C4024020443114880E7FF50000065
:1026600048610000FF1F0000FF0F0000FF54000042
:10267000FF520000008CFFFFFF580000FF550000D4
:10268000FF59000000A0FFFF44610000008DFFFF24
:10269000F1A00000008AFFFFF4A00000F0A0FFFFFF
:1026A0000090FFFF13B50A0401AB1980120E002140
:1026B0000E2A0BD81C78062C08D80723534369220E
:1026C00042439B181B19024A5B00995A080016BD29
:1026D0009C5E000007B501AB19800199FFF7E2FF8E
:1026E000FFF710FF0EBD000010B582280CD014D8E3
:1026F000312866D004D829285AD02A2867D010BD9E
:10270000352850D03928FAD1384B1A78920767D13A
:102710005B781B07F3D52920F1E7E32827D00BD8F6
:10272000E02816D0E228EAD1304B1B785A07E6D5CC
:10273000E320DB0619D4E2E7E62826D0E72829D0F3
:10274000E428DCD1294B5A789207D8D51B78E720AA
:10275000EFE7264C0121227813000B402FD164783B
:102760000C42CCD0E320D206C9D50020C7E71F4ACF
:102770001378590732D45278D20731D4102213403B
:102780005A4253415B421840B9E7184B1B781A076D
:10279000DDD4B4E7154A1378190723D45278920789
:1027A000ECD5E420ABE7114B1B789B06A7D5B2E72D
:1027B0000E4B1A78920617D45B781B079FD53920E9
:1027C0009DE70A4B1B785B0699D52A2097E7074BB4
:1027D0001B785B0600D492E7312090E7E2208EE779
:1027E000E0208CE7E6208AE7352088E7CA10002041
:1027F00030B5042427490A78224205D01823034023
:10280000082B27D198432043130708D51824050027
:1028100014232540A54225D1A843C0B21843012462
:102820004978214206D018230340082B21D1984330
:10283000C0B220438B0708D51821040011230C4097
:102840008C421FD1A043C0B21843D30601D5E72361
:10285000184030BD14230340042BD5D198430433D2
:102860001843D1E70340142BD9D19843C0B2204379
:10287000D5E711230340012BDCD19843C0B20733C5
:102880001843D7E70340112BDFD19843C0B2084368
:10289000DBE7C046CA1000200020704700207047C8
:1028A000014B18607047C0466804002010B5FFF760
:1028B000D1FC10BD10B500F0FBF8282002F0CCF8D8
:1028C00000F0F6F8002000F033F8C30703D5FFF757
:1028D000EDFF01F045F910BD10B5FFF7EBFF10BD9E
:1028E00010B5FFF7BFFC002801D1FFF749FDFFF746
:1028F000C5FC094B1870FFF7CBFC084B1880FFF79D
:10290000EBFFFFF7C0FC80B2FEF79DFF044B188879
:10291000FEF7BDFF10BDC046C1060020CA10002052
:10292000100600207047704710B5FFF7FCFF10BD80
:10293000014B185C7047C046DB100020704710B593
:10294000012002F089F810BD704710B5FFF7F7FFBE
:1029500010BD000010B501F04FFD074B1A689A42F8
:1029600007D0DB6899689368994202D2034801F066
:10297000DBFC62B610BDC04610110020766100007D
:1029800010B5040072B601F027FD0548210DC9B24B
:102990002040032202F01EFEFFF7DCFF10BDC04600
:1029A000FFFF0FF070B50B4C25003C352068431C31
:1029B00001D0FFF7E5FF0434AC42F7D1064C250007
:1029C0001C352068431C01D0FFF7DAFF0434AC4209
:1029D000F7D170BDA061000084610000F7B5244B01
:1029E0008A00D75801900D007B1C36D072B63C008F
:1029F000204E3F0D344001F0EFFCF9B220000622DA
:102A000002F0E8FDFBB201273A009A40A260FFF70E
:102A1000A1FFFFF799FF0023174C00932068431C88
:102A20001CD10023009A7F001343DBB20093134BA9
:102A30000434FFB29C42F1D10D4BAA00D058431C84
:102A400001D0FFF79DFF009928004B1E9941C9B2A4
:102A5000FFF77BFF019B009A5A55F7BD010DC9B2E4
:102A6000304002F059FE0028DBD17BB2DAE7C046E5
:102A7000A0610000FFFF0FF084610000A061000072
:102A800010B50F24FFF78EFF220000210648FEF745
:102A9000C7F8220000210548FEF7C2F8200000F028
:102AA00037F8FEF727FA10BDDB100020CC1000200D
:102AB0007FB50F2200216846FEF7B2F800242100FE
:102AC00001346846E4B2FFF789FF0F2CF7D10E4DB1
:102AD000220069462800FEF727F80600731E9E4173
:102AE000F6B2002804D0220069462800FEF744F818
:102AF00033000F220549280000F022F80400FEF7F9
:102B0000FDF9200004B070BDCC100020DB100020C7
:102B100070B50724050020006843FDF7F1FF002190
:102B200001356543054B1860AC4200D170BDE21F12
:102B300081540132A242FBD10734F5E7C4060020DC
:102B4000F0B587B002920022474E1D003478474B03
:102B5000059001911A7094425BD000F0BDFF444B88
:102B60001A681860811AFF2905D8002904D1002DA0
:102B70005BD125004FE0FF21002207203270029E2A
:102B80001700704316003B4BC9B21A703A4B1B68D2
:102B9000181800900098834209D1002F02D001211B
:102BA000314B1970002AE2D0324B1E70DFE7D81D7E
:102BB00084461878002805D0814207D300222600D9
:102BC0001A70220001336345F3D1E3E7401A18700D
:102BD0002700F7E7019AD45C059AD25C6240049220
:102BE0000022050095400499EDB20D420AD00099EB
:102BF000895C002906D1009E1431B1540700844637
:102C000006006C400132072AEBD1019AD4540133FB
:102C100015E0002D05D1174B1B78002B1FD0002D80
:102C200003D100F059FF124B1860134B01201B68B1
:102C300003930D4B1E780D4B1F7800239C460721F4
:102C40005943039A521802990092DAB29142C1D8BC
:102C50006346002B03D0044B1E70044B1F70034BC4
:102C6000187807B0F0BDC046C3060020C206002099
:102C7000C8060020CC060020C406002010B501F0D4
:102C800065FAFFF7BFFB01F075FA10BD10B501F052
:102C900079FAFFF7C1FB01F093FA10BD10B500F00F
:102CA000C9FE01F04FFAFFF78DFBFFF7E7FFFFF7D3
:102CB000EDFFFFF79BFBFAE710B5164B1B78DA0721
:102CC0000AD5154B1B785B007F20834203D87E38E2
:102CD000002B00D0D8B210BD9A0703D50E4B1B783D
:102CE0009B00F1E75B0703D50B4B1B78DB00EBE7A1
:102CF0000A4B187800280BD0094B1978064B1B7823
:102D00008842F3D25843C000FDF7C8FC83B2DBE72A
:102D10000823DFE7D80600206E040020D906002033
:102D20006F04002010B5154B1A7801231A4207D002
:102D3000134B1B789B080120002B0ED0D8B20CE05F
:102D4000910703D50E4B1B785B08F4E7520705D5B6
:102D50000B4B1B787F208342EDD910BD094A1278B6
:102D6000002AEBD0084B1978054B18788A4201D31A
:102D700083B2EFE75043FDF791FCF9E7D806002056
:102D800072040020DA0600207304002010B5ED283C
:102D900005D1FFF791FF4042274BD87010BDEE28B8
:102DA00002D1FFF789FFF7E7EF2805D1FFF784FF8E
:102DB0004042214B9870F1E7F02802D1FFF77CFFE9
:102DC000F7E7F92804D1FFF7ADFF1B4B1871E5E7D2
:102DD000FA2803D1FFF7A6FF4042F6E7FB2805D10A
:102DE000FFF7A0FF4042144B5871D7E7FC2802D1EF
:102DF000FFF798FFF7E703000F33DBB2072B07D885
:102E00000123F13883400C4A51780B435370C5E7D6
:102E1000FD2805D10123094A11780B431370BDE742
:102E2000FE2803D1054A02231178F6E7FF28B5D121
:102E3000024A04231178F0E7D2060020D8060020C9
:102E4000022210B5364B9A56ED280AD1D9787F293F
:102E50000DD90021D9708A420BD10021314A11705D
:102E600007E0EE280ED1032159560029F1DC002A93
:102E70000ED01A795B7913435BB2002B01D12A4A39
:102E8000137010BDEF2808D1002AF0DA00229A70E2
:102E900003229A56002AECD1DFE7F02802D1002A5B
:102EA000F4DCE4E704215956F92804D10029DEDDD9
:102EB00000211971DBE7FA2802D10029D7DAF7E7F8
:102EC00005215956FB2804D10029D0DA0021597177
:102ED000CDE7FC2802D10029F8DCC8E701000F315A
:102EE000C9B2072907D80121F13881400800597873
:102EF00081435970BBE7FD2805D101240B480178B7
:102F0000A1430170B3E7FE2803D1084802240178E9
:102F1000F6E7FF28ABD1054804240178F0E7C04666
:102F2000D2060020D9060020DA060020D8060020AC
:102F300010B500F009FE084B9A78D9780A4301D001
:102F4000064A10801A7959790A4301D0044A108040
:102F5000180000F09BFC10BDD2060020CE06002019
:102F6000D006002010B5062200210548FDF758FEC6
:102F70000023044A1370044A1370044A137010BDEE
:102F8000D2060020D9060020DA060020D80600204C
:102F9000022282560123002A0BD103228256002AE4
:102FA00007D104228256002A03D10523C356581E96
:102FB000834118007047000037B55E4C062221009F
:102FC0006846FDF7D9FD00236A46A370E3702371BC
:102FD00063716B46D2789B7813430BD0564B18889D
:102FE00000F0B7FD55490B78002B28D0544A1278D1
:102FF00090422DDC6B466A461B79527913430BD005
:10300000504B188800F0A5FD4F490B78002B52D08B
:103010004E4A1278904257DC6946200000F0B4FC1A
:10302000002804D12000FFF7B3FF002801D0FFF7EC
:103030007FFF062269462000FDF79EFD37BD444A0A
:1030400015780A226A439042D4DD01330B7001E007
:10305000FF2BFAD16B4602255D57002D07D0FFF7F5
:103060002BFE0123002D00DCFE334343A3706B468F
:1030700003255D57002D07D0FFF71EFE0123002D0D
:1030800000DCFE334343E370022161560029B1D0D6
:10309000032020560028ADD0B5235943091205D08E
:1030A000A17043431B1204D0E370A3E70122A27076
:1030B000F7E70123F8E7274A15780A226A43904286
:1030C000AADD01330B7001E0FF2BFAD16B4604251A
:1030D0005D57002D07D0FFF725FE0123002D00DCF2
:1030E000FE33434323716B4605255D57002D07D002
:1030F000FFF718FE0123002D00DCFE33434363710C
:1031000004216156002900D186E7052020560028B9
:1031100000D181E7B5235943091205D021714343FA
:103120001B1204D0637177E701222271F7E70123B4
:10313000F8E7C046D2060020CE060020D9060020BF
:103140006D040020D0060020DA0600207104002063
:103150006C0400207004002010B50E4C0E4B0C4087
:10316000C021C904214319600C4B1A6072B60123B7
:103170000B4C03432000984762B67022237813401B
:1031800000D023708023074ADB00D1680B43D36053
:1031900010BDC046FCFFFF000400024008000240D2
:1031A00000000240003000F0074B084808491A8828
:1031B000824203D1023B074A136070479A1C8A423D
:1031C000F9D21300F3E7C04600F80000FFFF00004B
:1031D00000000100DC06002070B50C4D04002B68D7
:1031E000002B02D1FFF7E0FF2B68FF207F2C03D8D4
:1031F0000500074A934200D270BD11880E002E4090
:10320000A64200D1080A0232F4E7C046DC060020DC
:1032100000F80000F0B5454BA5B004000F000E22E9
:10322000434968461D68FDF7A7FC7F2C14D8291E6A
:1032300003D1FFF7B9FF3D4B19683E4B023199426C
:103240000FD23A4B3F023C4319608B0706D43A4AEF
:1032500022436846FFF780FF25B0F0BD2404374ABB
:10326000F6E70022FF236946102009188B5401322B
:10327000802AF8D100269446314BEF302D4A9342F4
:1032800023D36B4610229B18E7542D4C2500294B65
:103290009D4224D30025022710226B469B18220052
:1032A0005B5D3A40FF2B05D0002A34D11B022B4333
:1032B0001E0002340135802DEED11C4B1C60A3078B
:1032C000CAD51D4A21003243C3E762461E88164212
:1032D00003D13200350A02408D540233CEE79023E9
:1032E000184A1B052B43136072B601226B46164F1A
:1032F00013433800984762B670263B781E4000D0D2
:103300003E708023114ADB00D1680B43D3608023D9
:10331000DB00ED18BBE72A0416431B061E433200F0
:1033200021006846FFF718FFC3E7C046DC0600200F
:103330000C5E0000000001000000FFFFFFFF000026
:1033400000F800000400024000000240003000F0DD
:1033500070B50400FFF740FF0500601CFFF73CFF5D
:103360000002284380B270BD70B50D000400C9B2E0
:10337000FFF750FF290A601CFFF74CFF70BD70B5C6
:103380000D000400C9B2FFF745FF290A601CC9B24D
:10339000FFF740FF290CA01CC9B2FFF73BFF290E25
:1033A000E01CFFF737FF70BD10B5FFF733FF10BD0E
:1033B00010B5FFF7D9FF10BD10B5FFF7E0FF10BD46
:1033C00070B505008878002800D130E1994EB542EB
:1033D0002AD8994B9D4203D2984BEB18132B2AD82D
:1033E000FEF756FF964C974B20809D4200D1F1E0AE
:1033F0004ED8954B9D4200D1C7E02BD8934B9D42B0
:1034000000D1B3E01DD8924B9D4200D1A8E000D975
:10341000A9E0904B9D4200D199E02088FEF744FF3F
:10342000FEF7B6F9002006E08B4B9D42D8D003D8BA
:103430008A4B9D42D4D070BD894BEB18022BFAD831
:10344000CEE7884B9D4200D19CE000D897E02278DF
:1034500040237EE0844B9D4200D1A9E008D8834BF5
:103460009D4200D19BE000D895E02378022298E0AD
:103470007F4B9D4200D1A7E000D29CE07D4B9D4256
:1034800000D1A4E07C4B9D42C7D12378402288E044
:10349000BA23DB019D4200D1A5E029D8664B9D42AD
:1034A00067D016D8754B9D4200D1ACE000D297E0B2
:1034B000734B9D42B1D10121042023785A07D20FCA
:1034C0004A400A40910083430B430821D2008B43BA
:1034D0003FE06C4B9D4271D04ED36B4B9D4270D000
:1034E0006A4B9D4200D098E7032362789A4335E007
:1034F0005A4B9D4200D192E00BD8654B9D4200D1C2
:103500008BE073D30020B54200D086E7FEF73CFF86
:1035100083E7604B9D421FD009D84F4B9D4200D09E
:103520007BE701212378DA07D20F4A40CFE75A4BD5
:103530009D4238D0594B9D4200D06EE701226378FE
:103540001907C90F4A400821D2008B4306E0012326
:1035500022781343237060E708236278134325E041
:1035600022780223F5E722780423F2E72278082361
:10357000EFE762780123F1E762780223EEE7227831
:103580001023E6E722782023E3E7FEF701F9802302
:1035900022785B42DDE70C2322789A43D9E70122A7
:1035A00023789343D6E7082263789343637034E724
:1035B00023780422F5E723780822F2E763780122D2
:1035C000F3E763780222F0E723781022E9E7237813
:1035D0002022E6E7FEF7DCF87F2223781340B9E7E4
:1035E00023780C22DDE763780322DEE7012163788C
:1035F000DA07D20F4A400A408B431343510002229C
:1036000093430B43D2E7FEF7C3F801222378D9098D
:103610004A407F21D2010B409BE7012076E701223F
:103620002378D906C90F4A40120110214FE7012023
:1036300001E7C046035D0000FB5C0000FEA3FFFF46
:10364000CA100020125C0000095C0000055C00004C
:10365000035C0000025C0000A65D0000625D0000EB
:1036600052A2FFFF075C00000D5C00000B5C000035
:103670000F5C0000105C0000115C0000145C000096
:10368000155C0000FD5C0000FE5C0000FF5C0000BB
:10369000025D0000AE5D0000AF5D0000B05D0000A7
:1036A000124A10B501230C00904214D1FEF7D0FC51
:1036B000A3780F4A002B10D0AA2303401900481EFC
:1036C000814135201170002B00D10C38FEF78AFCA7
:1036D000FEF71AFD0023180010BD13783520002BCB
:1036E00000D10C38FEF788FCF2E7C046165C0000FB
:1036F000E0060020F8B5140082781D0006AB1F78A4
:10370000274B002A11D01C7000F01EFA254B1880A0
:1037100023002033DBB2072B06D8072301201C40EF
:10372000A040C0B2FDF7F3FDF8BD1E78A6422DD132
:103730001C4B188800F00DFAC72827D82C0020341D
:10374000AE4215D033002033DBB2072B06D8072357
:1037500001201E40B040C0B2FDF7E1FDE3B2072BEF
:1037600006D8072301202B409840C0B2FDF7CFFDBB
:103770003800E4B2FDF7C3FD072CD5D8072301209C
:103780001D40A840C0B2FDF7CAFDCDE7230020339D
:10379000DBB2072BC8D8072301201C40A040F1E76B
:1037A000E1060020E2060020234B13B504000800C8
:1037B0009C4221D00ED8214B9C4219D0204B9C42D8
:1037C00032D0204B9C420CD126230093BB331A00ED
:1037D00021001BE01C4B9C421CD012D31B4B9C4273
:1037E0001DD08078002824D00022194B1A7010E0D8
:1037F00027230093BE33EAE72623E0220093BB335E
:10380000E6E72723E42213490093BE33FFF772FF54
:10381000002016BD2623E2220093BB33D8E72723DE
:10382000E6220093BE33D3E72823E5220093273B0B
:10383000CEE70120EDE7C046F45C0000D95C000053
:10384000DA5C0000D85C0000F65C0000F75C000069
:10385000E1060020F55C0000014B18607047C0468F
:10386000E4060020034B10B51B68181E01D01B682E
:10387000984710BDE4060020034B10B51B68002BD1
:1038800001D05B68984710BDE4060020044B10B5DA
:103890001B68002B03D0022202709B68984710BD62
:1038A000E4060020064B10B51A88824206D0188024
:1038B000044B1B68002B01D0DB68984710BDC04645
:1038C000EA060020E4060020064B10B51A88824262
:1038D00006D01880044B1B68002B01D01B69984749
:1038E00010BDC046E8060020E40600200300821C4C
:1038F000002008339A4200D170471178002901D086
:103900000130C0B20132F5E70300081E08D09A1C4E
:1039100008331078884204D001329A42F9D100204D
:1039200070470120FCE701220023F0B55242851CBC
:10393000EC5C5EB28C420BD0571C02D1002C00D143
:1039400032000133062BF3D1531C01D08018817053
:10395000F0BD002210B5831C08301C788C4200D1C9
:103960001A7001338342F8D110BD10B5FFF7DBFFA9
:1039700010BD10B5FFF7EDFF10BD10B502300622E7
:103980000021FDF74DF910BD10B50622FDF7CCF86A
:10399000431E9841C0B210BD704710B5FFF7FCFF41
:1039A00010BD0000431E984110B5034B0130187044
:1039B000FFF7F3FF10BDC046EC060020032010B552
:1039C000024B1870FFF7E9FF10BDC046EC0600205F
:1039D00010B5FFF7E7FF10BD012010B5024B1870BE
:1039E000FFF7DBFF10BDC046EC06002010B5FFF767
:1039F000F3FF10BD70477047704710B5FFF7FCFF2D
:103A000010BD704710B5FFF7FCFF10BD10B5FFF7F4
:103A1000F1FF0024FFF74CF8FFF7EDFF2000FEF761
:103A200087FF002804D10134E4B20F2CF6D110BD79
:103A30000120FCE710B501F075F800F097FC10BD0F
:103A400010B5FDF7C7FA112001F006F810BD10B54A
:103A5000FEF714FBFEF728FBFEF7D8FAFFF782FA11
:103A60000020FFF71FFF0020FFF72EFFFDF7B8FA39
:103A700010BD000010B500F0BFFC074B1A689A4259
:103A800007D0DB6899689368994202D2034800F036
:103A90004BFC62B610BDC04610110020DC61000076
:103AA00010B572B600F098FC054BDA69054B1A6048
:103AB0000023054A1360054A1360FFF7DBFF10BDC2
:103AC00010110020F8060020F0060020F406002067
:103AD00010B5FFF7E5FF10BDF8B572B600F07CFC3D
:103AE000154B16481649DC690D680368154AE41A37
:103AF000A54208D9293BFF3B036013682934293BC1
:103B0000FF3BFF3413601568012600270C60FFF7A8
:103B1000B1FF20000021FA22801979419200002390
:103B2000FCF7C8FEFA22801BB94192000023FCF783
:103B3000A1FE2818F8BDC04610110020F80600208C
:103B4000F0060020F406002010B5FFF7C5FF80B294
:103B500010BD10B50400FFF7BFFF001B80B210BD01
:103B600010B5642000F078FF00BE10BD7047000063
:103B70000F2230B507490C78631C1340064A1578AC
:103B800000229D4203D0054A0B70105501221000FF
:103B900030BDC046FA100020FB100020EA100020C3
:103BA000704710B500F04CFC62B610BD70B50D004A
:103BB0002D0200212800074C1043261D61603200B1
:103BC000190000F0FFFA20606068002800D0200093
:103BD00070BDC046FC06002010B500F00DFC074B80
:103BE0001A689A4207D0DB6899689368994202D2B2
:103BF000034800F099FB62B610BDC04610110020CA
:103C0000E8610000DA30084A01781378022907D108
:103C1000012B01D0062B02D15278044B1A70704749
:103C2000024A1370FBE7C046440700203407002017
:103C300070B505000E0000F041FC074C2368002B16
:103C400002D0200000F098FC33002900034A200035
:103C500000F076FC70BDC0461C070020713C0000DF
:103C6000704710B572B600F0D9FBFFF79AFF10BD90
:103C700070B50C0072B600F0D1FB2378042B02D093
:103C8000FFF78FFF70BD134D2B78002BF8D0124B30
:103C90001B78002BF4D023899B0705D408230F4AF7
:103CA0000121200001F092F8FA22287892000023E6
:103CB0000021FCF7FFFD0023094A80185941FA2230
:103CC00000239200FCF7D6FD21008000FFF7B0FF33
:103CD000D6E7C046180700207404002035070020EE
:103CE000E703000010B5040005291ED80800FCF702
:103CF0002DFC1A1C031A1A1D72B600F08FFB0C4A19
:103D00000121200000F0CCFF0A4A0221200000F02F
:103D1000C7FFFFF746FF084B1B78002B02D005209A
:103D2000FFF726FF0220FFF723FF10BD0520FAE76B
:103D3000F4610000186200003D07002070B5060025
:103D40000D0072B600F048FB0E4C2378042B02D015
:103D5000FFF742FF70BD22891A4207D063690A212A
:103D600058690C3000F082FE431CF1D0064A032350
:103D7000557002212D0A20001670957001F026F86A
:103D8000E6E7C046941100203E070020020070B50F
:103D9000D43215787F23290004001940212900D04E
:103DA00084E09D4334D0802D00D07FE00300D533E4
:103DB0001878022823D0032814D0012800D075E0F9
:103DC000210003331B78C831083AD034002B05D1C9
:103DD000474D0D6008211160236070BD00230B600A
:103DE0001360F9E72300D8331B88002B5ED1220033
:103DF00001204049C83211605060D034ECE7230004
:103E000001203D4AC8331A605860D0340023E3E7EC
:103E10000300D5331B780A2B42D00B2B11D0092B72
:103E200044D10300D8331B78012B3FD80300334A19
:103E3000C8331A6002225A60314BD034236001200B
:103E4000CBE70300D8331D88002D22D1023B1B781D
:103E5000294E5A1E9341274A13703378002B18D0ED
:103E600072B600F0DBFAFA220023920030782900C3
:103E7000FCF720FD0023234A80185941FA22002331
:103E80009200FCF7F7FC21008000FFF7D1FEFFF75E
:103E900088FE22000023C83213605360D034CDE77F
:103EA0000300D7331B78144E3370D7E7164B1288B4
:103EB0009A4201D0002090E72300D9331A78013BC1
:103EC0001B7812021343210022006068D632D731DA
:103ED0004568127809782000A8470028EAD0230016
:103EE0004268C8331A600268D0345A600023A5E7DC
:103EF0003507002074040020180700204407002024
:103F0000053C0000E70300008106000010B5102208
:103F100000210448FCF784FE0023034A1370034A7F
:103F2000137010BDEA100020FA100020FB100020D2
:103F3000F8B50F2501240021234B244A1E78244F75
:103F400013789E4233D1002900D01670F8BD13704B
:103F5000204B1C70204BDF3319780800431E98411A
:103F6000C0B2FFF72BFDE6E713700022194B1A7061
:103F7000FFF76DFD184BDF3319780800431E984199
:103F8000C0B2FFF725FDD6E71370134BDF33197866
:103F90000800431E9841C0B2FFF704FDCBE70021A3
:103FA00013700800F8E71370FFF716FDC3E7180059
:103FB000385C01332B4021000528C2D8FCF7BCFA3D
:103FC000F3C1E4EFC7D4C046FA100020FB10002074
:103FD000EA1000203D070020941100200D4A0E4BEE
:103FE00070B5D35805000D4C5B0303D51022637ADE
:103FF00093436372322000F02FFD2800084900F03F
:10400000EDFD1023627A134300226372054B1A60A0
:1040100070BDC0460070044034100000FF2007400F
:104020003C6200001C07002070B5050000F0FEFD9A
:10403000094A0A4B0A4CD3585B0303D51022637A12
:10404000934363722800074900F0C8FD1023627A89
:104050001343637270BDC04600700440341000000A
:10406000FF2007403C620000014B18787047C046B3
:104070003407002070B5050072B600F0ADF9104CA1
:104080002378042B0DD123899B070DD42A0001210D
:104090002000082300F09AFE082229000948FCF7B6
:1040A0006BFDFFF799FD70BD0121236949425869F5
:1040B0000C3000F0DBFC2378042BE7D0F1E7C0469E
:1040C000941100203507002070B5050072B600F08D
:1040D00083F90C4C2378042B02D0FFF77DFD70BDD3
:1040E00022891A4207D063690A2158690C3000F00E
:1040F000BDFC431CF1D006232A000221200000F061
:1041000065FEEAE79411002010B501000320FFF7D7
:1041100015FE10BD10B501000420FFF70FFE10BD05
:10412000704770477047704710B5FFF7FAFF01F00E
:1041300029F9FFF7F7FF10BD10B501F027F9FFF7D8
:10414000F2FF10BD10B5FFF751FC10BD10B5FFF721
:10415000DDFE0548FFF742FF044B054A32201A6096
:1041600000F07AFC10BDC046941100205C070020CE
:104170007804002010B5024B1868FFF76DFB10BDE6
:104180005C07002010B5FFF7D3FE0C4C2378052BFD
:1041900006D12378052B04D0FDF7B6FFFEF7C8FE45
:1041A00010BDFFF74DFCFFF731FC0028F1D02000D7
:1041B00000F038FE2000FFF737FFEAE794110020F7
:1041C00070470000030A032B12D006D8012B21D020
:1041D000022B22D00020030012E0212B12D0222B30
:1041E000F8D1002920D00129F4D17B20104B07E021
:1041F000C0B20228EED80F4B8100CB580E49085CA4
:104200001360704700290BD00129E3D10B4B092023
:104210002B33F5E712200A4BF2E73B20074BEFE781
:10422000064B09201233EBE74020064BE8E7C04677
:104230001A6300004C620000586200005B620000DC
:1042400096620000A862000010B500F0D5F8074B98
:104250001A689A4207D0DB6899689368994202D23B
:10426000034800F061F862B610BDC046101100208E
:1042700095630000024B034A1A60034A5A60704774
:10428000FC1000209012002000180020F8B50C004F
:1042900005001600671E00F011F9002C01D027421E
:1042A00002D0094800F040F8084A6042116853689B
:1042B0008E19F71938404519AB4203D3A94201D8EA
:1042C0001560F8BD0020FCE7A1630000FC10002091
:1042D00070B504000D00160072B600F07DF83200D3
:1042E00029002000FFF7D2FF0400FFF7ADFF2000F8
:1042F00070BD70477047FEE770B508210024094B78
:1043000018685A689D68954207D8D868904207D8BF
:10431000013910330029F3D170BD40C840C2F2E723
:1043200010C2F3E7B863000072B60322024B1866AE
:10433000024B1A70FEE7C046101100200811002041
:1043400010B500F059F8074B1A689A4207D0DB689D
:1043500099689368994202D20348FFF7E5FF62B675
:1043600010BDC0461011002038640000012310B5B4
:10437000074C237000236360FFF77CFF0549064864
:1043800000F07EFA02232370FFF7DAFF10BDC0466B
:10439000081100205864000010110020044B10B5D3
:1043A00058688368012B02D00248FFF7BDFF10BD9B
:1043B0001011002044640000064B10B5DC6800F0CA
:1043C0007DF8A37E002B01D0013BA37600F0F8F826
:1043D00010BDC0461011002010B5054C636EA26ED2
:1043E000134302D00348FFF79FFF0123A36610BDCC
:1043F000101100207964000010B5064C636E002B8C
:1044000002D1A36E002B02DC0348FFF78DFF0023CF
:10441000A36610BD101100208364000010B5064C87
:10442000636E002B02DDA36E002B02D00348FFF762
:104430007BFF0123A36610BD101100207E640000E5
:1044400010B5064C636E002B02DDA36E002B02DC60
:104450000348FFF769FF0023A36610BD1011002079
:104460008864000010B572B6074C636E002B02DB47
:10447000A36E002B02D00548FFF756FF636E013391
:10448000636662B610BDC046101100206F64000064
:1044900010B572B6074C636E002B02DDA36E002BC5
:1044A00002D00548FFF740FF636E013B636662B6CA
:1044B00010BDC0461011002074640000054B10B5FB
:1044C0005A6E002A02DB9B6E002B02DC0248FFF7CB
:1044D0002BFF10BD101100208D640000054B10B59E
:1044E0005A6E002A02D19B6E002B02DC0248FFF7B5
:1044F0001BFF10BD1011002093640000F8B50500EB
:104500000E000D4F3C69A3689E420CD86368AE60F4
:104510006B602C601D60A36865609E1B01235B427D
:10452000A660BB61F8BDAC4202D10448FFF7FCFEB7
:10453000A3682468F61AE6E71011002099640000C9
:10454000F8B504000D0016001F00FFF7B7FF002CA0
:1045500003D0002E01D0002D02D10648FFF7E4FE63
:1045600000232761E660290063612000FFF7C6FF92
:10457000F8BDC046A964000010B50400FFF79EFF17
:10458000002C02D10C48FFF7CFFEFFF797FF2368FE
:10459000002B02D10848FFF7C7FE2368A1689A687C
:1045A00052189A60626813605A60002301222360E7
:1045B000024B52429A6110BDB464000010110020F9
:1045C00070B5FFF77BFF134D134AEB690133EB61C5
:1045D0002B69934206D09A68013A9A602C69A368C5
:1045E000002B00D070BD226861680A6051602360B2
:1045F000FFF726FF62B621692000E368984772B68C
:10460000FFF70CFF61690029E8D02000FFF776FF73
:10461000E4E7C046101100202011002010B5037EF1
:104620000400002B01D00F2B02D10948FFF77CFEBC
:104630000023A268237623691B6899689142FBD204
:104640005A6823606260200014605C6010BDC04640
:10465000C164000010B5037E0400002B01D00F2BB5
:1046600002D10948FFF760FE0023A2682376236980
:104670001B6899689142FBD85A68236062602000E9
:1046800014605C6010BDC046D46400000D4B70B572
:104690001C68D868226853601A6001222276DC60A8
:1046A000FFF7D8FF0500EFF309834269243B9A42E4
:1046B00002D90548FFF738FE29002000FBF714FF58
:1046C00070BDC046101100200065000070B50C00E0
:1046D00072B6FFF7A3FE207E052807D8FBF736FF4A
:1046E0000C06060316100022E3691A6001235B42E0
:1046F000E3612000FFF792FFFFF7A2FE62B670BDF4
:10470000E569FFF7DBFEAB680133AB6062682368E5
:1047100013605A60EAE7000010B50400FFF7CEFE10
:10472000002C02D10348FFF7FFFD2000FFF776FFC2
:1047300010BDC046E664000070B5154D0600EC687B
:10474000FFF7CCFEFFF72AFEA04202D11148FFF787
:10475000EBFD2369AB4202D00E48FFF7E5FD1423C1
:1047600026762E68A37633685D602B600123EE60A9
:104770003376EFF309836269243B9A4202D90648F3
:10478000FFF7D2FD30002100FBF7AEFE70BDC04642
:1047900010110020F26400000065000070B50E00EA
:1047A0000F4B86B0DC680500FFF798FE731C13D032
:1047B00023000C4A31006846FFF7C2FE2800FFF7CD
:1047C000BBFFFFF77BFE009B002B02D06846FFF784
:1047D000D3FEE06906B070BD2800FFF7ADFFF8E733
:1047E00010110020CD46000070B5064CE568FFF7BB
:1047F00075FE23689A68AB689A4201D9FFF746FFB5
:1048000070BDC04610110020074BDA681B6899681C
:104810009368927E100099425041C0B2002A02D0A3
:104820008B4280414042704710110020114B70B5FF
:104830001C68D868226853601A600122DC60227606
:10484000837E002B12D1FFF7E9FE14230500837647
:10485000EFF309836A69243B9A4202D90648FFF7BD
:1048600063FD29002000FBF73FFE70BDFFF7F2FE5D
:104870000500EDE71011002000650000FEE70000D4
:10488000F0B5214D87B06B6804000E00002B02D0FC
:104890001E48FFF749FD6C6000252000A5622663D5
:1048A00000F01EF9230010332361636101235B4292
:1048B000A361174BE561D96901270A002B0021008C
:1048C000226263622460134A6460A560E562256623
:1048D0006566A76634318033200000F04BF87368BA
:1048E000E06043610C4B0776F068316900930B4B35
:1048F0000190029104930397059500F047F86846EC
:1049000000F08CF807B0F0BD081100200F65000022
:104910001011002024650000296500007D4800007A
:1049200010B572B6FFF758FD10BD000010B5FFF7C7
:1049300063FD074B1A689A4207D0DB689968936851
:10494000994202D20348FFF7EFFC62B610BDC046A1
:10495000101100202E65000010B5041E02D104487D
:10496000FFF7E2FC21000820FFF718FF10BDC0464A
:104970003A65000002228B608B6200230A831232A8
:1049800008618A7608004B620B62704755230370FA
:1049900001308142FBD8704710B50400FFF78EFD4F
:1049A000002C02D11A48FFF7BFFC072162680A42B7
:1049B00007D1A3680B4204D19A4202D29B1AAF2BB3
:1049C00002D81348FFF7B0FCE368FF2B02D8236935
:1049D000002B02D10E48FFF7A7FCA36862681800FD
:1049E000303842612269543BC3601A6162690949E7
:1049F0005A61094A1A620223E268037601610023C0
:104A0000142182604376817682624362036210BD24
:104A100046650000101100200905000010B5FFF7E1
:104A2000BBFFFFF779FE10BD054B10B5DB68D86101
:104A30000F20FFF781FE0348FFF776FC10BDC0464C
:104A4000101100205C65000010B50400FFF768FF3E
:104A50002000FFF7E9FF10BD10B50400FFF760FF6D
:104A60002000FFF779FFFFF761FF10BD0B4B70B51A
:104A7000DE68036804000D00002B02D00848FFF731
:104A800053FC002D06D026602900F4610320FFF7B7
:104A900085FE70BD01204042FBE7C046101100209A
:104AA0006765000070B5046805000E00002C0BD08F
:104AB000237E032B02D00548FFF736FC002320009D
:104AC0002B60E661FFF728FE70BDC0467C650000E4
:104AD000EFF30983203383F3098862B6704700003F
:104AE000024A0349136A0B401362704700ED00E06D
:104AF000FFFF00FF10B50F300FD072B6EFF309843F
:104B0000203C84F3098880235B04E361FFF77CFE8B
:104B1000024B002800D1024BA36110BD1B05000011
:104B20002605000010B500F0ABFC054800F0D4FDF0
:104B300000F040F8FFF700FB00F004F810BDC0469D
:104B40000C66000010B500F033FD10BD10B5FFF786
:104B500053FC074B1A689A4207D0DB689968936840
:104B6000994202D20348FFF7DFFB62B610BDC04690
:104B7000101100208965000010B572B6FFF74EFCD9
:104B800010BD10B5FFF75CFC62B610BD020003005B
:104B900010B50400D6321278DE331A7000F002FF2E
:104BA00063681B68002B02D0012120009847032373
:104BB000237010BD10B500F04FFE10BD01230200A0
:104BC0000370010000234C32436088311360D363CB
:104BD00004328A42FAD183607047000070B5040045
:104BE0000D00002801D0002902D10F48FFF79CFBDF
:104BF00072B6FFF7F1FB2378013B012B02D90A487B
:104C0000FFF792FB23002200002165600C334C3239
:104C100002C39342FCD1200000F030FE0223237037
:104C2000FFF794FF002070BD9565000070B5041E6D
:104C300002D11A48FFF778FB72B6FFF7CDFB237855
:104C4000013B042B02D91548FFF76EFB200000F052
:104C500075FE0023250002266360013323700C35A6
:104C60004C3476422B68002B0ED05869002803D0B4
:104C70000C303100FFF716FF2B689869002803D02D
:104C80000C303100FFF70EFF002308C5A542E9D123
:104C9000FFF7AAFDFFF75AFF70BDC0469E650000F2
:104CA000F8B504000F001500FFF708FC002C01D038
:104CB000002D02D11248FFF737FB2378042B02D0D6
:104CC0000F48FFF731FBBE00A619F368002B02D096
:104CD0000B48FFF729FB6869F560002803D0142210
:104CE0000021FBF79DFFA869002803D014220021B2
:104CF000FBF796FF3900200000F05EFEF8BDC046CD
:104D0000A6650000F8B50400FFF7D8FB002C02D11F
:104D10001648FFF709FB2378042B02D01348FFF74E
:104D200003FB250027000226A268114B1035134013
:104D3000A3604C3776422B68002B0ED058690028B0
:104D400003D00C303100FFF7ADFE2B6898690028C6
:104D500003D00C303100FFF7A5FE002308C5BD428B
:104D6000E9D1200000F02EFEF8BDC046B765000076
:104D700001000100F7B505000E0017000193FFF7D1
:104D80009DFB002D01D00F2E02D90F48FFF7CCFA62
:104D90000124B4406B89A4B2234202D00A48FFF731
:104DA000C3FA6B89019A1C43B31C9B00EB185B6828
:104DB0006C819B6931001A6000229F6028005A6054
:104DC000DA6000F061FEF7BDCC650000F7B50500C4
:104DD0000E0017000193FFF771FB002D01D00F2E7D
:104DE00002D90F48FFF7A0FA0124B4402B89A4B2DE
:104DF000234202D00A48FFF797FA2B89019A1C43F5
:104E0000B31C9B00EB185B682C815B6931001A6056
:104E100000229F6028005A60DA6000F0ABFFF7BD07
:104E2000DD650000037870B5052B0AD10425054C1B
:104E3000022023782B432370FFF70EFE2378AB4329
:104E4000237070BD942007400223F7B50200037061
:104E50000023DC3213608360030005000227040096
:104E60004C330C3501937F422B68002B13D0FFF796
:104E700083FE2B685869002803D00C303900FFF7F7
:104E800011FE2B689869002803D00C303900FFF719
:104E900009FEFFF776FE0026019B40C59D42E3D147
:104EA0002300C4331E70200000F056FD63681B68A9
:104EB000B34202D0310020009847F7BD03000278CA
:104EC000E03370B51A7005230370436804001B6853
:104ED000002B01D004219847250000230226A3605F
:104EE0000C354C3476422B68002B13D0FFF744FE70
:104EF0002B685869002803D00C303100FFF7D2FD31
:104F00002B689869002803D00C303100FFF7CAFDE8
:104F1000FFF737FE0435A542E5D170BD030010B59B
:104F2000E0331B78037043681B68002B01D0052118
:104F3000984710BDF7B50600C43633780400002B3F
:104F400001D0002333702300D4331A0020000193D2
:104F500000F06EFD63689B68002B16D16025019BF5
:104F60001A78154038D00021200000F031FF0021D0
:104F7000200000F023FF63681B68002B02D006218D
:104F80002000984706233370F7BD2000984700287B
:104F9000E4D023002700DB331A78013B1B78120290
:104FA000CC3713433A689A4200D93B60019B3D6875
:104FB0001B787F2B00D81BE1002D00D10BE10923CA
:104FC0003370FFF7D9FD22000021C8323B68126818
:104FD0002000FFF7FBFE08E123007F21D5331B787B
:104FE0000A401B0213438C4A934200D1DDE02DD8C6
:104FF000022B00D1ACE00BD8002B4CD0012BB2D14E
:10500000864A2300C8331A6002225A6000222DE02B
:1050100081225200934200D1B1E0FF32FF3293422D
:1050200042D08022520093429DD12300D6331B7878
:10503000012B98D122000221DC3213888B4313808C
:105040002300C8331D605D609D60A2E7744A9342EF
:105050000ED8013A934233D2013AFF3A934200D03C
:1050600081E723006F4AC8331D605D609A6090E756
:105070009022120193423FD06B4A9342C0D08022CB
:105080001201934200D06EE723002200C833DF32C2
:105090001A6001222EE022002100C832DC311160AA
:1050A00002215160936074E72300D6331B78012BF3
:1050B00000D058E72200DC32118801330B43BEE7F1
:1050C00023002200D9331B78D83212781B021343F5
:1050D000210022006068D632D731476812780978FB
:1050E0002000B847002800D13DE723004268C833BC
:1050F0001A6002685A60A7E72378042B11D1FFF7E2
:105100003BFD2000FFF7FEFDFFF73BFD23000321E1
:10511000DF331D70636821701B68002B01D02000F5
:1051200098472300D6331B78002B0BD02200DF32A8
:1051300013700423237063681B68002B02D00221C4
:105140002000984722000023C83213605360A9E76B
:1051500023000F21D8331B78200019405BB2002BAD
:105160000ADA00F051FC012804D0022800D0FAE647
:105170002E4A46E72E4A44E700F032FCF3E72300CC
:10518000D6331B78002B00D0EDE623000F21D83357
:105190001B781940D6D05BB22000002B02DA00F059
:1051A0002BFECFE700F01EFECCE72300D6331B78A2
:1051B000002B00D0D7E623000F21D8331B781940ED
:1051C000C0D05BB22000002B02DA00F001FEB9E78C
:1051D00000F0F4FDB6E714233370FFF7CDFC2B008D
:1051E0002A0000212000FFF7C5FDFFF7CAFCCBE62F
:1051F000002D08D015233370FFF7BEFC2200C83203
:105200003B681268EDE70B233370FFF7B5FC2B000A
:105210002A002900DCE6C046020300000A660000FE
:10522000010600008D4B0000020C00000666000025
:105230000866000070B50500C435040028781528FC
:1052400053D8FBF783F93E52525252524152520BFD
:10525000283552525252525252523E3E2300CC33C3
:10526000DA7B18680E331B7812021343984212D26D
:10527000E368198AFBF70EFA0E1E0CD1FFF77CFCCF
:105280003300320031002000FFF7A0FDFFF779FC6A
:105290000A232B700BE014232B70FFF76DFC002307
:1052A00020001A001900FFF765FDFFF76AFC70BDCA
:1052B0002300D0331B68002B01D020009847002327
:1052C000E7E70C48FFF730F80021200000F080FDF0
:1052D0000021200000F072FD63681B68002B02D0E3
:1052E0000621200098470623D3E70248FFF71CF861
:1052F000DDE7C046EF65000070B50500C4352B78CA
:1053000004000B2B09D8092B26D2002B24D0062B06
:1053100025D01B48FFF708F80FE0142B0ED0152BF3
:10532000F7D10A3B2B70FFF727FC002320001A005F
:105330001900FFF74BFDFFF724FC70BDC3689B69A4
:105340005B68002BF9D10300D0331B68002B00D021
:10535000984700232B70F0E70948FEF7E5FF00218E
:10536000200000F035FD0021200000F027FD6368DB
:105370001B68002B02D00621200098470623E9E78E
:10538000FA65000010B500F07DF810BD7047000010
:1053900070B505000C1E02DA0648FEF7C5FF0022B4
:1053A00001212000FEF794FF002802D10C230138D0
:1053B0002B6070BDA0680000704700000322F0B5AC
:1053C000FF26C0250240D2009640890191400A4F35
:1053D00083089B00DB19AD005C591F22B4430C43CA
:1053E0005C51012302409340C02240098000C01953
:1053F000520083500360F0BD00E100E01F23012252
:1054000003409A4030B543090B4C0C4D9B001919D1
:105410005B19DA67C0235B00CA5003218308084088
:1054200088409B001B19C024FC318140A4001A59FC
:105430008A431A5130BDC04600E100E004E100E0BB
:1054400070B504000D000B2802D90B48FEF76CFF65
:1054500003210F2323400C408C40FC31A140AD01BF
:10546000A540083B054A9B089B009B18DA698A43C4
:105470001543DD6170BDC046A868000000ED00E086
:105480007047000000239C4688236246F0B58025C3
:1054900089B06C4631485B01C250314AAD00835837
:1054A0002B43835003682F4A1340220003602E4B86
:1054B000C2CBC2C2C2CBC2C242CB42C22B4B2C4FC8
:1054C0009E6C3E409E64DA6C3A40DA648A22294B34
:1054D0001A70294B863A5A705E781C3232435A70E1
:1054E000624691006158A94203D00132082AF8D1DE
:1054F000013A8021D20049420A43D2B21A70DA78C6
:105500009F310A40DA7000225A71023299791142B1
:10551000FCD0102299791142FCD10C219A790A40D1
:10552000082AFBD1013A1A7151325A71383A9979E5
:105530001142FCD0402299791142FCD00F4A104907
:105540008150104A1049815000220C211A709A791A
:105550000A400C2AFBD109B0F0BDC04600700440DF
:1055600038100000FFFFF3FF1C5E000000900440B5
:10557000FFF8FFFE005006400040064044100000C7
:1055800000000110041000000000010110B5744675
:10559000FEF768FF72B6FEF741FFFEF70DFFFEF75C
:1055A0004FFF62B6FEF774FF2000FFF7A3FA10BDAD
:1055B000064B074A10B55A6000229A6007321A60FB
:1055C00008210B20FFF73CFF10BDC04610E000E0B3
:1055D0007FBB000070B505000C0016001F2902D922
:1055E0003248FEF7A1FE01233149A3406A69062E25
:1055F0000CD113436B618D4252D12E4BA4008022FB
:1056000035E02D4B9D4207D12C4B12E09A436A6145
:105610008D42F6D1274B0CE0294B9D421AD0294BE5
:105620009D4219D0284B9D4218D02048FEF77CFEA1
:105630000023162E18D83000FAF77EFFE01BE01288
:10564000171BE0161616161616161616E01E22253D
:10565000292C2F001D4BECE71D4BEAE71D4BE8E71B
:105660000422A400FF32E25070BD8122A400520047
:10567000F9E7A4000022F6E78022A4009200F2E7F6
:10568000A400C022FAE78022A400D200EBE7A40025
:10569000A022FAE7A400C022F7E7A400E022F4E782
:1056A000054B9D42B8D1054BA8E7C046C568000030
:1056B00000F00F400090044040F00F4000A0044074
:1056C00080F00F40C0F00F4000F10F4000B00440E8
:1056D00000C0044000D00440F8B5F8230C490D4A3E
:1056E0009B018C5823438B50A52304009B00C718B3
:1056F00026000025E9B2726820680135FFF76AFFCD
:105700000436202DF6D18434BC42F1D1F8BDC04618
:10571000007004403810000000690123C8401840A0
:1057200070470000064B1A783F2A00D9FEE7187828
:10573000C0B2421CD2B21A70024B8001C01870472E
:10574000C0100020000C0020F7B500258B1C9B002A
:10575000C01846680C00B369AB421BD05D82882339
:10576000708A254D020413434F017B51C0B2FFF7ED
:10577000D9FFEF1978600127A3001F43C823708A5F
:10578000FF00020413437B51C0B2FFF7CBFFED19BA
:10579000686008257369002B1DD000221A8202233D
:1057A000A100154F0B43DB00DA510193307CFFF76A
:1057B000B9FF019B0022FB1858600323A1000B4393
:1057C000DB00DA510193307CFFF7ACFF019BFF183F
:1057D000042378601D43032233681340012B03D058
:1057E000023A1543002B01D010231D43034B3034E4
:1057F000A400E554F7BDC046000A00200020074081
:105800008B1C9B00F0B5C018446889006069248A2D
:10581000037C194302231943944200D91400002346
:105820000C4DC9006A18A3420DD1427C1B0494019F
:105830001C43882323436B5001235A404274027C4B
:1058400053400374F0BD8668F75C5668F754013323
:10585000E9E7C046000A002010B50548FFF7AEF999
:1058600080230449044ADB02885803438B5010BD4F
:10587000941100200070044004100000037810B55B
:10588000012B40D1204B98423DD1002318001F4AE4
:10589000D9008850013351184860102BF8D180236B
:1058A0001B481C49DB0244582343435080201A4BB9
:1058B000597B01435973597B49B20029FBDB110A1B
:1058C0001648C9B20170110C1548C9B201701549CA
:1058D000120E0A70FF22144918200A7013490A7028
:1058E00013490A74597BBF3A0A4303215A73114A78
:1058F000117000225A7001230F4A11780B43137064
:105900000221FFF75BFD10BD94110020000A00206A
:105910000070044034100000FF2007409C20074026
:10592000B0200740B420074080200740882007406F
:10593000002007409420074084200740037810B5DA
:10594000012B05D1034B984202D11820FFF756FDD9
:1059500010BDC04694110020F8B500270E4C0F4B27
:1059600026001F700223943633700D4B3900C3603C
:105970000500FFF7E9FE2200FF2388321370DE35B1
:10598000083A13702F7017760C3213708434603B12
:1059900023709E3B3370F8BD00200740C0100020EC
:1059A000DC6800007F22DE3003781340014A137068
:1059B0007047C0469820074010B5102901D8FFF75E
:1059C000C3FE10BD0123002004491A0030329200AA
:1059D00001335054102BF8D17047C04600200740C7
:1059E00000200F290CD8074B8900C9180823087814
:1059F000184005D00878063B184043425841013012
:105A00007047C046C020074000200F290CD8074B24
:105A10008900C91804230878184005D00878023B8B
:105A200018404342584101307047C046C0200740EB
:105A3000F0B58E008019C368124D9C690021A37CCB
:105A40003343DB00EF18BC4667467F687F5C5754E2
:105A500001310829F8D1C0688031428A120411430B
:105A60005951E37C002B07D00121A37C5940C82366
:105A70003143C9001A434A51012342695374E37404
:105A8000F0BDC046000A00200231890041184A6872
:105A900010B5946901232068002805D0518A401868
:105AA0000138FAF771FD83B2238210BD8B1CF7B564
:105AB0009B00C3185D680090AC696E8AA37C8F0060
:105AC0001F43964200D9160000230F4AFF00D01949
:105AD0000190B3420FD1E67C6B8AB5011B042B43C6
:105AE0008825094A2B43D35101235E40E674009870
:105AF000FFF7CAFFF7BD01984068C05C8446624664
:105B0000A068C2540133E4E7000A00207346F0B5F0
:105B1000914D85B02C780293E4B2FEF7A3FC019579
:105B2000630708D58D484368DB68002B00D0984791
:105B30000423019A137008231C420FD101252C4223
:105B400000D1DEE08548FFF77FF9019B1D70FEF76D
:105B50009FFC0298FEF7CEFF05B0F0BD0121804BFF
:105B60007E4C1B78DBB21E09B21C03929200A21875
:105B700057689A10DB100A400B40B50015435900D6
:105B80000D43002B03D1BB69002B00D09A74754BD9
:105B9000ED00EA5893061B0F092B5AD00D2B44D069
:105BA000012B4FD1BB69002B4CD09501AD0D72B6C6
:105BB000FEF734FC2A0031002000FFF777FFFEF7E4
:105BC0003FFC62B6002D3DD0BB699A6852199A60BD
:105BD0005A6852195A601A68521B1A601A8A013A96
:105BE00092B21A827B8AAB4201D8002A2AD1FB6882
:105BF000002B27D00122B240638993436381B31CF9
:105C00009B00E3185B68DB68002B02D031002000AA
:105C1000984772B6FEF702FC039B9B00E41863688A
:105C20009B69180059680C3068E0012263893100D3
:105C30009343638120007B68984720214A4A137868
:105C40008B4313700822019B1A70019B1C78E4B2ED
:105C500071E77B69002BF5D0002E16D12300D433D9
:105C60001B88052B11D122002300D6321278DE3397
:105C700020001A70FFF796FE63681B68002B02D0A5
:105C800001212000984703232370364B7A695B5922
:105C900051689B019B0D106859185160814211D2C7
:105CA0009168CB18936072B6FEF7B8FB7B69310040
:105CB0001A685B682000D21AFFF7A2FDFEF7C0FB4E
:105CC00062B6BFE7BB68002BBCD00122B24023897B
:105CD00093432381B31C9B00E3185B689B68002BF4
:105CE00002D031002000984772B6FEF797FB0021E2
:105CF000039B9B00E418636858690C30FEF7D2FEE2
:105D0000DCE763B2002B02DA8023019A13700222CF
:105D1000144205D015490B78DBB20B70019B1A7049
:105D2000E3060DD50D480378042B06D1FFF7C6F81E
:105D300020230F4A11780B4313701023019A13701C
:105D400020252C4200D102E7094A04481378AB43CE
:105D50001370FFF7E3F8F8E6802007409411002065
:105D600090200740000A0020942007408820074028
:105D700084200740F8B5002915D10300C4331B78EF
:105D80000B2B10D1C826C3680B4D9C695A8AA77C7F
:105D900012041643FB005E51012388267B40DB0082
:105DA00032435A51E1748B1C9B00C3185B685B69DA
:105DB0001A68FFF725FDF8BD000A0020034B890093
:105DC000C91802230A7813430B707047C02007409C
:105DD000034B8900C91802230A7813430B707047DC
:105DE000C02007400222034B8900C9180B78934357
:105DF0000B707047C02007400222034B8900C9186E
:0C5E00000B7893430B707047C0200740E4
:105E0C008023037003785BB2002BFBDA7047000031
